{
  "contractName": "Organization",
  "abi": [
    {
      "constant": true,
      "inputs": [],
      "name": "name",
      "outputs": [
        {
          "internalType": "string",
          "name": "",
          "type": "string"
        }
      ],
      "payable": false,
      "stateMutability": "view",
      "type": "function"
    },
    {
      "constant": true,
      "inputs": [
        {
          "internalType": "address",
          "name": "",
          "type": "address"
        }
      ],
      "name": "members",
      "outputs": [
        {
          "internalType": "bytes32",
          "name": "role",
          "type": "bytes32"
        },
        {
          "internalType": "bool",
          "name": "hasData",
          "type": "bool"
        }
      ],
      "payable": false,
      "stateMutability": "view",
      "type": "function"
    },
    {
      "constant": true,
      "inputs": [],
      "name": "version",
      "outputs": [
        {
          "internalType": "uint32",
          "name": "",
          "type": "uint32"
        }
      ],
      "payable": false,
      "stateMutability": "view",
      "type": "function"
    },
    {
      "constant": false,
      "inputs": [],
      "name": "renounceOwnership",
      "outputs": [],
      "payable": false,
      "stateMutability": "nonpayable",
      "type": "function"
    },
    {
      "constant": true,
      "inputs": [],
      "name": "owner",
      "outputs": [
        {
          "internalType": "address",
          "name": "",
          "type": "address"
        }
      ],
      "payable": false,
      "stateMutability": "view",
      "type": "function"
    },
    {
      "constant": true,
      "inputs": [],
      "name": "isOwner",
      "outputs": [
        {
          "internalType": "bool",
          "name": "",
          "type": "bool"
        }
      ],
      "payable": false,
      "stateMutability": "view",
      "type": "function"
    },
    {
      "constant": true,
      "inputs": [
        {
          "internalType": "address",
          "name": "",
          "type": "address"
        }
      ],
      "name": "subAccounts",
      "outputs": [
        {
          "internalType": "bytes32",
          "name": "desc",
          "type": "bytes32"
        },
        {
          "internalType": "bool",
          "name": "hasData",
          "type": "bool"
        }
      ],
      "payable": false,
      "stateMutability": "view",
      "type": "function"
    },
    {
      "constant": false,
      "inputs": [
        {
          "internalType": "address",
          "name": "newOwner",
          "type": "address"
        }
      ],
      "name": "transferOwnership",
      "outputs": [],
      "payable": false,
      "stateMutability": "nonpayable",
      "type": "function"
    },
    {
      "constant": true,
      "inputs": [],
      "name": "token",
      "outputs": [
        {
          "internalType": "contract ERC20",
          "name": "",
          "type": "address"
        }
      ],
      "payable": false,
      "stateMutability": "view",
      "type": "function"
    },
    {
      "inputs": [
        {
          "internalType": "contract Daos",
          "name": "_daos",
          "type": "address"
        },
        {
          "internalType": "string",
          "name": "_name",
          "type": "string"
        }
      ],
      "payable": false,
      "stateMutability": "nonpayable",
      "type": "constructor"
    },
    {
      "anonymous": false,
      "inputs": [
        {
          "indexed": false,
          "internalType": "address",
          "name": "member",
          "type": "address"
        },
        {
          "indexed": false,
          "internalType": "bytes32",
          "name": "role",
          "type": "bytes32"
        }
      ],
      "name": "SetMemberRole",
      "type": "event"
    },
    {
      "anonymous": false,
      "inputs": [
        {
          "indexed": false,
          "internalType": "address",
          "name": "member",
          "type": "address"
        }
      ],
      "name": "RemoveMember",
      "type": "event"
    },
    {
      "anonymous": false,
      "inputs": [
        {
          "indexed": false,
          "internalType": "address",
          "name": "token",
          "type": "address"
        }
      ],
      "name": "SetToken",
      "type": "event"
    },
    {
      "anonymous": false,
      "inputs": [
        {
          "indexed": true,
          "internalType": "address",
          "name": "previousOwner",
          "type": "address"
        },
        {
          "indexed": true,
          "internalType": "address",
          "name": "newOwner",
          "type": "address"
        }
      ],
      "name": "OwnershipTransferred",
      "type": "event"
    },
    {
      "constant": false,
      "inputs": [
        {
          "internalType": "contract ERC20",
          "name": "_token",
          "type": "address"
        }
      ],
      "name": "setToken",
      "outputs": [],
      "payable": false,
      "stateMutability": "nonpayable",
      "type": "function"
    },
    {
      "constant": false,
      "inputs": [
        {
          "internalType": "address[]",
          "name": "addresses",
          "type": "address[]"
        },
        {
          "internalType": "bytes32[]",
          "name": "roles",
          "type": "bytes32[]"
        }
      ],
      "name": "addOrUpdateMembers",
      "outputs": [],
      "payable": false,
      "stateMutability": "nonpayable",
      "type": "function"
    },
    {
      "constant": false,
      "inputs": [
        {
          "internalType": "address[]",
          "name": "_members",
          "type": "address[]"
        }
      ],
      "name": "removeMembers",
      "outputs": [],
      "payable": false,
      "stateMutability": "nonpayable",
      "type": "function"
    },
    {
      "constant": true,
      "inputs": [
        {
          "internalType": "address",
          "name": "member",
          "type": "address"
        }
      ],
      "name": "getRole",
      "outputs": [
        {
          "internalType": "bytes32",
          "name": "",
          "type": "bytes32"
        }
      ],
      "payable": false,
      "stateMutability": "view",
      "type": "function"
    },
    {
      "constant": false,
      "inputs": [
        {
          "internalType": "address",
          "name": "member",
          "type": "address"
        }
      ],
      "name": "_removeMember",
      "outputs": [],
      "payable": false,
      "stateMutability": "nonpayable",
      "type": "function"
    }
  ],
  "bytecode": "0x60806040523480156200001157600080fd5b5060405162001b4338038062001b43833981810160405260408110156200003757600080fd5b8101908080519060200190929190805160405193929190846401000000008211156200006257600080fd5b838201915060208201858111156200007957600080fd5b82518660018202830111640100000000821117156200009757600080fd5b8083526020830192505050908051906020019080838360005b83811015620000cd578082015181840152602081019050620000b0565b50505050905090810190601f168015620000fb5780820380516001836020036101000a031916815260200191505b50604052505050336000806101000a81548173ffffffffffffffffffffffffffffffffffffffff021916908373ffffffffffffffffffffffffffffffffffffffff1602179055506000809054906101000a900473ffffffffffffffffffffffffffffffffffffffff1673ffffffffffffffffffffffffffffffffffffffff16600073ffffffffffffffffffffffffffffffffffffffff167f8be0079c531659141344cd1fd0a4f28419497f9722a3daafe3b4186f6b6457e060405160405180910390a38060019080519060200190620001d6929190620006cc565b508173ffffffffffffffffffffffffffffffffffffffff166332434a2e30836040518363ffffffff1660e01b8152600401808373ffffffffffffffffffffffffffffffffffffffff1673ffffffffffffffffffffffffffffffffffffffff16815260200180602001828103825283818151815260200191508051906020019080838360005b83811015620002785780820151818401526020810190506200025b565b50505050905090810190601f168015620002a65780820380516001836020036101000a031916815260200191505b509350505050600060405180830381600087803b158015620002c757600080fd5b505af1158015620002dc573d6000803e3d6000fd5b5050505060606001604051908082528060200260200182016040528015620003135781602001602082028038833980820191505090505b50905033816000815181106200032557fe5b602002602001019073ffffffffffffffffffffffffffffffffffffffff16908173ffffffffffffffffffffffffffffffffffffffff168152505060606001604051908082528060200260200182016040528015620003925781602001602082028038833980820191505090505b5090507f6f776e657200000000000000000000000000000000000000000000000000000081600081518110620003c457fe5b602002602001018181525050620003e28282620003ec60201b60201c565b505050506200077b565b620003fc6200067560201b60201c565b6200046f576040517f08c379a00000000000000000000000000000000000000000000000000000000081526004018080602001828103825260208152602001807f4f776e61626c653a2063616c6c6572206973206e6f7420746865206f776e657281525060200191505060405180910390fd5b8051825114620004cb576040517f08c379a000000000000000000000000000000000000000000000000000000000815260040180806020018281038252602e81526020018062001b15602e913960400191505060405180910390fd5b60008090505b82518161ffff1610156200067057600160036000858461ffff1681518110620004f657fe5b602002602001015173ffffffffffffffffffffffffffffffffffffffff1673ffffffffffffffffffffffffffffffffffffffff16815260200190815260200160002060010160006101000a81548160ff021916908315150217905550818161ffff16815181106200056357fe5b602002602001015160036000858461ffff16815181106200058057fe5b602002602001015173ffffffffffffffffffffffffffffffffffffffff1673ffffffffffffffffffffffffffffffffffffffff168152602001908152602001600020600001819055507f5dd27703e52ce4468cbaa14d83e36ddda4b69c759bc1546d9788e1da0a1be0a3838261ffff1681518110620005fb57fe5b6020026020010151838361ffff16815181106200061457fe5b6020026020010151604051808373ffffffffffffffffffffffffffffffffffffffff1673ffffffffffffffffffffffffffffffffffffffff1681526020018281526020019250505060405180910390a1806001019050620004d1565b505050565b60008060009054906101000a900473ffffffffffffffffffffffffffffffffffffffff1673ffffffffffffffffffffffffffffffffffffffff163373ffffffffffffffffffffffffffffffffffffffff1614905090565b828054600181600116156101000203166002900490600052602060002090601f016020900481019282601f106200070f57805160ff191683800117855562000740565b8280016001018555821562000740579182015b828111156200073f57825182559160200191906001019062000722565b5b5090506200074f919062000753565b5090565b6200077891905b80821115620007745760008160009055506001016200075a565b5090565b90565b61138a806200078b6000396000f3fe608060405234801561001057600080fd5b50600436106100ea5760003560e01c80638a799a221161008c578063da34250c11610066578063da34250c14610515578063f2fde38b14610578578063fbc990d0146105bc578063fc0c546a14610600576100ea565b80638a799a221461035d5780638da5cb5b146104a95780638f32d59b146104f3576100ea565b806344276733116100c8578063442767331461021957806346ee84b01461027157806354fd4d5014610329578063715018a614610353576100ea565b806306fdde03146100ef57806308ae4b0c14610172578063144fa6d7146101d5575b600080fd5b6100f761064a565b6040518080602001828103825283818151815260200191508051906020019080838360005b8381101561013757808201518184015260208101905061011c565b50505050905090810190601f1680156101645780820380516001836020036101000a031916815260200191505b509250505060405180910390f35b6101b46004803603602081101561018857600080fd5b81019080803573ffffffffffffffffffffffffffffffffffffffff1690602001909291905050506106e8565b60405180838152602001821515151581526020019250505060405180910390f35b610217600480360360208110156101eb57600080fd5b81019080803573ffffffffffffffffffffffffffffffffffffffff169060200190929190505050610719565b005b61025b6004803603602081101561022f57600080fd5b81019080803573ffffffffffffffffffffffffffffffffffffffff1690602001909291905050506108f2565b6040518082815260200191505060405180910390f35b6103276004803603602081101561028757600080fd5b81019080803590602001906401000000008111156102a457600080fd5b8201836020820111156102b657600080fd5b803590602001918460208302840111640100000000831117156102d857600080fd5b919080806020026020016040519081016040528093929190818152602001838360200280828437600081840152601f19601f8201169050808301925050505050505091929192905050506109e3565b005b610331610a9f565b604051808263ffffffff1663ffffffff16815260200191505060405180910390f35b61035b610aa4565b005b6104a76004803603604081101561037357600080fd5b810190808035906020019064010000000081111561039057600080fd5b8201836020820111156103a257600080fd5b803590602001918460208302840111640100000000831117156103c457600080fd5b919080806020026020016040519081016040528093929190818152602001838360200280828437600081840152601f19601f8201169050808301925050505050505091929192908035906020019064010000000081111561042457600080fd5b82018360208201111561043657600080fd5b8035906020019184602083028401116401000000008311171561045857600080fd5b919080806020026020016040519081016040528093929190818152602001838360200280828437600081840152601f19601f820116905080830192505050505050509192919290505050610bdd565b005b6104b1610e54565b604051808273ffffffffffffffffffffffffffffffffffffffff1673ffffffffffffffffffffffffffffffffffffffff16815260200191505060405180910390f35b6104fb610e7d565b604051808215151515815260200191505060405180910390f35b6105576004803603602081101561052b57600080fd5b81019080803573ffffffffffffffffffffffffffffffffffffffff169060200190929190505050610ed4565b60405180838152602001821515151581526020019250505060405180910390f35b6105ba6004803603602081101561058e57600080fd5b81019080803573ffffffffffffffffffffffffffffffffffffffff169060200190929190505050610f05565b005b6105fe600480360360208110156105d257600080fd5b81019080803573ffffffffffffffffffffffffffffffffffffffff169060200190929190505050610f8b565b005b61060861111f565b604051808273ffffffffffffffffffffffffffffffffffffffff1673ffffffffffffffffffffffffffffffffffffffff16815260200191505060405180910390f35b60018054600181600116156101000203166002900480601f0160208091040260200160405190810160405280929190818152602001828054600181600116156101000203166002900480156106e05780601f106106b5576101008083540402835291602001916106e0565b820191906000526020600020905b8154815290600101906020018083116106c357829003601f168201915b505050505081565b60036020528060005260406000206000915090508060000154908060010160009054906101000a900460ff16905082565b610721610e54565b73ffffffffffffffffffffffffffffffffffffffff163273ffffffffffffffffffffffffffffffffffffffff16146107a4576040517f08c379a00000000000000000000000000000000000000000000000000000000081526004018080602001828103825260288152602001806112d16028913960400191505060405180910390fd5b600073ffffffffffffffffffffffffffffffffffffffff16600260009054906101000a900473ffffffffffffffffffffffffffffffffffffffff1673ffffffffffffffffffffffffffffffffffffffff161461084b576040517f08c379a000000000000000000000000000000000000000000000000000000000815260040180806020018281038252602181526020018061128a6021913960400191505060405180910390fd5b80600260006101000a81548173ffffffffffffffffffffffffffffffffffffffff021916908373ffffffffffffffffffffffffffffffffffffffff1602179055507fefc1fd16ea80a922086ee4e995739d59b025c1bcea6d1f67855747480c83214b81604051808273ffffffffffffffffffffffffffffffffffffffff1673ffffffffffffffffffffffffffffffffffffffff16815260200191505060405180910390a150565b6000600360008373ffffffffffffffffffffffffffffffffffffffff1673ffffffffffffffffffffffffffffffffffffffff16815260200190815260200160002060010160009054906101000a900460ff16610999576040517f08c379a000000000000000000000000000000000000000000000000000000000815260040180806020018281038252602f815260200180611327602f913960400191505060405180910390fd5b600360008373ffffffffffffffffffffffffffffffffffffffff1673ffffffffffffffffffffffffffffffffffffffff168152602001908152602001600020600001549050919050565b6109eb610e7d565b610a5d576040517f08c379a00000000000000000000000000000000000000000000000000000000081526004018080602001828103825260208152602001807f4f776e61626c653a2063616c6c6572206973206e6f7420746865206f776e657281525060200191505060405180910390fd5b60008090505b81518161ffff161015610a9b57610a90828261ffff1681518110610a8357fe5b6020026020010151610f8b565b806001019050610a63565b5050565b600181565b610aac610e7d565b610b1e576040517f08c379a00000000000000000000000000000000000000000000000000000000081526004018080602001828103825260208152602001807f4f776e61626c653a2063616c6c6572206973206e6f7420746865206f776e657281525060200191505060405180910390fd5b600073ffffffffffffffffffffffffffffffffffffffff166000809054906101000a900473ffffffffffffffffffffffffffffffffffffffff1673ffffffffffffffffffffffffffffffffffffffff167f8be0079c531659141344cd1fd0a4f28419497f9722a3daafe3b4186f6b6457e060405160405180910390a360008060006101000a81548173ffffffffffffffffffffffffffffffffffffffff021916908373ffffffffffffffffffffffffffffffffffffffff160217905550565b610be5610e7d565b610c57576040517f08c379a00000000000000000000000000000000000000000000000000000000081526004018080602001828103825260208152602001807f4f776e61626c653a2063616c6c6572206973206e6f7420746865206f776e657281525060200191505060405180910390fd5b8051825114610cb1576040517f08c379a000000000000000000000000000000000000000000000000000000000815260040180806020018281038252602e8152602001806112f9602e913960400191505060405180910390fd5b60008090505b82518161ffff161015610e4f57600160036000858461ffff1681518110610cda57fe5b602002602001015173ffffffffffffffffffffffffffffffffffffffff1673ffffffffffffffffffffffffffffffffffffffff16815260200190815260200160002060010160006101000a81548160ff021916908315150217905550818161ffff1681518110610d4657fe5b602002602001015160036000858461ffff1681518110610d6257fe5b602002602001015173ffffffffffffffffffffffffffffffffffffffff1673ffffffffffffffffffffffffffffffffffffffff168152602001908152602001600020600001819055507f5dd27703e52ce4468cbaa14d83e36ddda4b69c759bc1546d9788e1da0a1be0a3838261ffff1681518110610ddc57fe5b6020026020010151838361ffff1681518110610df457fe5b6020026020010151604051808373ffffffffffffffffffffffffffffffffffffffff1673ffffffffffffffffffffffffffffffffffffffff1681526020018281526020019250505060405180910390a1806001019050610cb7565b505050565b60008060009054906101000a900473ffffffffffffffffffffffffffffffffffffffff16905090565b60008060009054906101000a900473ffffffffffffffffffffffffffffffffffffffff1673ffffffffffffffffffffffffffffffffffffffff163373ffffffffffffffffffffffffffffffffffffffff1614905090565b60046020528060005260406000206000915090508060000154908060010160009054906101000a900460ff16905082565b610f0d610e7d565b610f7f576040517f08c379a00000000000000000000000000000000000000000000000000000000081526004018080602001828103825260208152602001807f4f776e61626c653a2063616c6c6572206973206e6f7420746865206f776e657281525060200191505060405180910390fd5b610f8881611145565b50565b610f93610e7d565b611005576040517f08c379a00000000000000000000000000000000000000000000000000000000081526004018080602001828103825260208152602001807f4f776e61626c653a2063616c6c6572206973206e6f7420746865206f776e657281525060200191505060405180910390fd5b600360008273ffffffffffffffffffffffffffffffffffffffff1673ffffffffffffffffffffffffffffffffffffffff16815260200190815260200160002060010160009054906101000a900460ff161561111c57600360008273ffffffffffffffffffffffffffffffffffffffff1673ffffffffffffffffffffffffffffffffffffffff1681526020019081526020016000206000808201600090556001820160006101000a81549060ff021916905550507f7693a3e9eac51f172f145e6f54bc5554168997a1f4efb40f3fad091aa7cfb0e781604051808273ffffffffffffffffffffffffffffffffffffffff1673ffffffffffffffffffffffffffffffffffffffff16815260200191505060405180910390a15b50565b600260009054906101000a900473ffffffffffffffffffffffffffffffffffffffff1681565b600073ffffffffffffffffffffffffffffffffffffffff168173ffffffffffffffffffffffffffffffffffffffff1614156111cb576040517f08c379a00000000000000000000000000000000000000000000000000000000081526004018080602001828103825260268152602001806112ab6026913960400191505060405180910390fd5b8073ffffffffffffffffffffffffffffffffffffffff166000809054906101000a900473ffffffffffffffffffffffffffffffffffffffff1673ffffffffffffffffffffffffffffffffffffffff167f8be0079c531659141344cd1fd0a4f28419497f9722a3daafe3b4186f6b6457e060405160405180910390a3806000806101000a81548173ffffffffffffffffffffffffffffffffffffffff021916908373ffffffffffffffffffffffffffffffffffffffff1602179055505056fe4f7267616e697a6174696f6e3a20546f6b656e20686173206265656e207365742e4f776e61626c653a206e6577206f776e657220697320746865207a65726f20616464726573734f7267616e697a6174696f6e3a2074782e6f726967696e206973206e6f7420746865206f776e65724f7267616e697a6174696f6e3a206164644f725570646174654d656d6265727320706172616d73206572726f722e4f7267616e697a6174696f6e3a204e6f742061206d656d626572206f6620746865206f7267616e697a6174696f6e2ea265627a7a723158208b8566866ab22b7469e0152f20f7765dde6d82d4f692001ec3536ab436e08d5f64736f6c634300050b00324f7267616e697a6174696f6e3a206164644f725570646174654d656d6265727320706172616d73206572726f722e",
  "source": "pragma solidity ^0.5.11;\n\nimport \"openzeppelin-solidity/contracts/ownership/Ownable.sol\";\nimport \"openzeppelin-solidity/contracts/token/ERC20/ERC20.sol\";\nimport \"../Daos.sol\";\n\n\ncontract Organization is Ownable {\n\n    event SetMemberRole(address member, bytes32 role);\n    event RemoveMember(address member);\n    event SetToken(address token);\n\n    struct Member {\n        bytes32 role;\n        bool hasData;\n    }\n\n    struct SubAccount {\n        bytes32 desc;\n        bool hasData;\n    }\n\n    uint32 public constant version = 1;\n    string public name;\n    ERC20 public token;\n    mapping(address => Member) public members;\n    mapping(address => SubAccount) public subAccounts;\n\n    constructor(Daos _daos, string memory _name) public {\n        name = _name;\n        _daos.register(address(this), _name);\n\n        address[] memory addrs = new address[](1);\n        addrs[0] = msg.sender;\n        bytes32[] memory rs = new bytes32[](1);\n        rs[0] = \"owner\";\n        addOrUpdateMembers(addrs, rs);\n    }\n\n    function setToken(ERC20 _token) public onlyManager {\n        require(address(token) == address(0), \"Organization: Token has been set.\");\n        token = _token;\n        emit SetToken(address(_token));\n    }\n\n    function addOrUpdateMembers(address[] memory addresses, bytes32[] memory roles) public onlyOwner {\n        require(addresses.length == roles.length, \"Organization: addOrUpdateMembers params error.\");\n        for (uint16 i = 0; i < addresses.length; ++i) {\n            members[addresses[i]].hasData = true;\n            members[addresses[i]].role = roles[i];\n            emit SetMemberRole(addresses[i], roles[i]);\n        }\n    }\n\n    function removeMembers(address[] memory _members) public onlyOwner {\n        for (uint16 i = 0; i < _members.length; ++i) {\n            _removeMember(_members[i]);\n        }\n    }\n\n    function getRole(address member) public view returns(bytes32) {\n        require(members[member].hasData, \"Organization: Not a member of the organization.\");\n        return members[member].role;\n    }\n\n    modifier onlyManager() {\n        require(tx.origin == owner(), \"Organization: tx.origin is not the owner\");\n        _;\n    }\n\n    function _removeMember(address member) public onlyOwner {\n        if (members[member].hasData) {\n            delete members[member];\n            emit RemoveMember(member);\n        }\n    }\n\n}",
  "sourcePath": "/Users/guoping/Documents/gp/proj/comunion/contract/dao/contracts/organization/Organization.sol",
  "compiler": {
    "name": "solc",
    "version": "0.5.11+commit.c082d0b4.Emscripten.clang"
  },
  "schemaVersion": "3.0.15",
  "updatedAt": "2019-11-05T03:22:27.816Z",
  "devdoc": {
    "methods": {
      "isOwner()": {
        "details": "Returns true if the caller is the current owner."
      },
      "owner()": {
        "details": "Returns the address of the current owner."
      },
      "renounceOwnership()": {
        "details": "Leaves the contract without owner. It will not be possible to call `onlyOwner` functions anymore. Can only be called by the current owner.     * > Note: Renouncing ownership will leave the contract without an owner, thereby removing any functionality that is only available to the owner."
      },
      "transferOwnership(address)": {
        "details": "Transfers ownership of the contract to a new account (`newOwner`). Can only be called by the current owner."
      }
    }
  },
  "userdoc": {
    "methods": {}
  }
}