{
  "contractName": "Organization",
  "abi": [
    {
      "constant": true,
      "inputs": [],
      "name": "name",
      "outputs": [
        {
          "internalType": "string",
          "name": "",
          "type": "string"
        }
      ],
      "payable": false,
      "stateMutability": "view",
      "type": "function"
    },
    {
      "constant": true,
      "inputs": [
        {
          "internalType": "address",
          "name": "",
          "type": "address"
        }
      ],
      "name": "members",
      "outputs": [
        {
          "internalType": "bytes32",
          "name": "role",
          "type": "bytes32"
        },
        {
          "internalType": "bool",
          "name": "hasData",
          "type": "bool"
        }
      ],
      "payable": false,
      "stateMutability": "view",
      "type": "function"
    },
    {
      "constant": true,
      "inputs": [],
      "name": "version",
      "outputs": [
        {
          "internalType": "uint32",
          "name": "",
          "type": "uint32"
        }
      ],
      "payable": false,
      "stateMutability": "view",
      "type": "function"
    },
    {
      "constant": false,
      "inputs": [],
      "name": "renounceOwnership",
      "outputs": [],
      "payable": false,
      "stateMutability": "nonpayable",
      "type": "function"
    },
    {
      "constant": true,
      "inputs": [],
      "name": "owner",
      "outputs": [
        {
          "internalType": "address",
          "name": "",
          "type": "address"
        }
      ],
      "payable": false,
      "stateMutability": "view",
      "type": "function"
    },
    {
      "constant": true,
      "inputs": [],
      "name": "isOwner",
      "outputs": [
        {
          "internalType": "bool",
          "name": "",
          "type": "bool"
        }
      ],
      "payable": false,
      "stateMutability": "view",
      "type": "function"
    },
    {
      "constant": true,
      "inputs": [
        {
          "internalType": "address",
          "name": "",
          "type": "address"
        }
      ],
      "name": "subAccounts",
      "outputs": [
        {
          "internalType": "bytes32",
          "name": "desc",
          "type": "bytes32"
        },
        {
          "internalType": "bool",
          "name": "hasData",
          "type": "bool"
        }
      ],
      "payable": false,
      "stateMutability": "view",
      "type": "function"
    },
    {
      "constant": false,
      "inputs": [
        {
          "internalType": "address",
          "name": "newOwner",
          "type": "address"
        }
      ],
      "name": "transferOwnership",
      "outputs": [],
      "payable": false,
      "stateMutability": "nonpayable",
      "type": "function"
    },
    {
      "constant": true,
      "inputs": [],
      "name": "token",
      "outputs": [
        {
          "internalType": "contract ERC20",
          "name": "",
          "type": "address"
        }
      ],
      "payable": false,
      "stateMutability": "view",
      "type": "function"
    },
    {
      "inputs": [
        {
          "internalType": "contract Daos",
          "name": "_daos",
          "type": "address"
        },
        {
          "internalType": "string",
          "name": "_name",
          "type": "string"
        }
      ],
      "payable": false,
      "stateMutability": "nonpayable",
      "type": "constructor"
    },
    {
      "anonymous": false,
      "inputs": [
        {
          "indexed": false,
          "internalType": "address",
          "name": "member",
          "type": "address"
        },
        {
          "indexed": false,
          "internalType": "bytes32",
          "name": "role",
          "type": "bytes32"
        }
      ],
      "name": "SetMemberRole",
      "type": "event"
    },
    {
      "anonymous": false,
      "inputs": [
        {
          "indexed": false,
          "internalType": "address",
          "name": "member",
          "type": "address"
        }
      ],
      "name": "RemoveMember",
      "type": "event"
    },
    {
      "anonymous": false,
      "inputs": [
        {
          "indexed": false,
          "internalType": "address",
          "name": "account",
          "type": "address"
        },
        {
          "indexed": false,
          "internalType": "bytes32",
          "name": "desc",
          "type": "bytes32"
        }
      ],
      "name": "SetSubAccount",
      "type": "event"
    },
    {
      "anonymous": false,
      "inputs": [
        {
          "indexed": false,
          "internalType": "address",
          "name": "account",
          "type": "address"
        }
      ],
      "name": "RemoveSubAccount",
      "type": "event"
    },
    {
      "anonymous": false,
      "inputs": [
        {
          "indexed": false,
          "internalType": "address",
          "name": "token",
          "type": "address"
        }
      ],
      "name": "SetToken",
      "type": "event"
    },
    {
      "anonymous": false,
      "inputs": [
        {
          "indexed": true,
          "internalType": "address",
          "name": "previousOwner",
          "type": "address"
        },
        {
          "indexed": true,
          "internalType": "address",
          "name": "newOwner",
          "type": "address"
        }
      ],
      "name": "OwnershipTransferred",
      "type": "event"
    },
    {
      "constant": false,
      "inputs": [
        {
          "internalType": "contract ERC20",
          "name": "_token",
          "type": "address"
        }
      ],
      "name": "setToken",
      "outputs": [],
      "payable": false,
      "stateMutability": "nonpayable",
      "type": "function"
    },
    {
      "constant": false,
      "inputs": [
        {
          "internalType": "address[]",
          "name": "addresses",
          "type": "address[]"
        },
        {
          "internalType": "bytes32[]",
          "name": "roles",
          "type": "bytes32[]"
        }
      ],
      "name": "addOrUpdateMembers",
      "outputs": [],
      "payable": false,
      "stateMutability": "nonpayable",
      "type": "function"
    },
    {
      "constant": false,
      "inputs": [
        {
          "internalType": "address[]",
          "name": "_members",
          "type": "address[]"
        }
      ],
      "name": "removeMembers",
      "outputs": [],
      "payable": false,
      "stateMutability": "nonpayable",
      "type": "function"
    },
    {
      "constant": true,
      "inputs": [
        {
          "internalType": "address",
          "name": "member",
          "type": "address"
        }
      ],
      "name": "getRole",
      "outputs": [
        {
          "internalType": "bytes32",
          "name": "",
          "type": "bytes32"
        }
      ],
      "payable": false,
      "stateMutability": "view",
      "type": "function"
    },
    {
      "constant": false,
      "inputs": [
        {
          "internalType": "address[]",
          "name": "accounts",
          "type": "address[]"
        },
        {
          "internalType": "bytes32[]",
          "name": "descs",
          "type": "bytes32[]"
        }
      ],
      "name": "addOrUpdateSubAccounts",
      "outputs": [],
      "payable": false,
      "stateMutability": "nonpayable",
      "type": "function"
    },
    {
      "constant": false,
      "inputs": [
        {
          "internalType": "address[]",
          "name": "accounts",
          "type": "address[]"
        }
      ],
      "name": "removeSubAccounts",
      "outputs": [],
      "payable": false,
      "stateMutability": "nonpayable",
      "type": "function"
    },
    {
      "constant": true,
      "inputs": [
        {
          "internalType": "address",
          "name": "account",
          "type": "address"
        }
      ],
      "name": "getSubAccountDesc",
      "outputs": [
        {
          "internalType": "bytes32",
          "name": "",
          "type": "bytes32"
        }
      ],
      "payable": false,
      "stateMutability": "view",
      "type": "function"
    },
    {
      "constant": false,
      "inputs": [
        {
          "internalType": "address",
          "name": "member",
          "type": "address"
        }
      ],
      "name": "_removeMember",
      "outputs": [],
      "payable": false,
      "stateMutability": "nonpayable",
      "type": "function"
    },
    {
      "constant": false,
      "inputs": [
        {
          "internalType": "address",
          "name": "account",
          "type": "address"
        }
      ],
      "name": "_removeSubAccount",
      "outputs": [],
      "payable": false,
      "stateMutability": "nonpayable",
      "type": "function"
    }
  ],
  "bytecode": "0x60806040523480156200001157600080fd5b506040516200242438038062002424833981810160405260408110156200003757600080fd5b8101908080519060200190929190805160405193929190846401000000008211156200006257600080fd5b838201915060208201858111156200007957600080fd5b82518660018202830111640100000000821117156200009757600080fd5b8083526020830192505050908051906020019080838360005b83811015620000cd578082015181840152602081019050620000b0565b50505050905090810190601f168015620000fb5780820380516001836020036101000a031916815260200191505b50604052505050336000806101000a81548173ffffffffffffffffffffffffffffffffffffffff021916908373ffffffffffffffffffffffffffffffffffffffff1602179055506000809054906101000a900473ffffffffffffffffffffffffffffffffffffffff1673ffffffffffffffffffffffffffffffffffffffff16600073ffffffffffffffffffffffffffffffffffffffff167f8be0079c531659141344cd1fd0a4f28419497f9722a3daafe3b4186f6b6457e060405160405180910390a38060019080519060200190620001d6929190620006cc565b508173ffffffffffffffffffffffffffffffffffffffff166332434a2e30836040518363ffffffff1660e01b8152600401808373ffffffffffffffffffffffffffffffffffffffff1673ffffffffffffffffffffffffffffffffffffffff16815260200180602001828103825283818151815260200191508051906020019080838360005b83811015620002785780820151818401526020810190506200025b565b50505050905090810190601f168015620002a65780820380516001836020036101000a031916815260200191505b509350505050600060405180830381600087803b158015620002c757600080fd5b505af1158015620002dc573d6000803e3d6000fd5b5050505060606001604051908082528060200260200182016040528015620003135781602001602082028038833980820191505090505b50905033816000815181106200032557fe5b602002602001019073ffffffffffffffffffffffffffffffffffffffff16908173ffffffffffffffffffffffffffffffffffffffff168152505060606001604051908082528060200260200182016040528015620003925781602001602082028038833980820191505090505b5090507f6f776e657200000000000000000000000000000000000000000000000000000081600081518110620003c457fe5b602002602001018181525050620003e28282620003ec60201b60201c565b505050506200077b565b620003fc6200067560201b60201c565b6200046f576040517f08c379a00000000000000000000000000000000000000000000000000000000081526004018080602001828103825260208152602001807f4f776e61626c653a2063616c6c6572206973206e6f7420746865206f776e657281525060200191505060405180910390fd5b8051825114620004cb576040517f08c379a000000000000000000000000000000000000000000000000000000000815260040180806020018281038252602e815260200180620023f6602e913960400191505060405180910390fd5b60008090505b82518161ffff1610156200067057600160036000858461ffff1681518110620004f657fe5b602002602001015173ffffffffffffffffffffffffffffffffffffffff1673ffffffffffffffffffffffffffffffffffffffff16815260200190815260200160002060010160006101000a81548160ff021916908315150217905550818161ffff16815181106200056357fe5b602002602001015160036000858461ffff16815181106200058057fe5b602002602001015173ffffffffffffffffffffffffffffffffffffffff1673ffffffffffffffffffffffffffffffffffffffff168152602001908152602001600020600001819055507f5dd27703e52ce4468cbaa14d83e36ddda4b69c759bc1546d9788e1da0a1be0a3838261ffff1681518110620005fb57fe5b6020026020010151838361ffff16815181106200061457fe5b6020026020010151604051808373ffffffffffffffffffffffffffffffffffffffff1673ffffffffffffffffffffffffffffffffffffffff1681526020018281526020019250505060405180910390a1806001019050620004d1565b505050565b60008060009054906101000a900473ffffffffffffffffffffffffffffffffffffffff1673ffffffffffffffffffffffffffffffffffffffff163373ffffffffffffffffffffffffffffffffffffffff1614905090565b828054600181600116156101000203166002900490600052602060002090601f016020900481019282601f106200070f57805160ff191683800117855562000740565b8280016001018555821562000740579182015b828111156200073f57825182559160200191906001019062000722565b5b5090506200074f919062000753565b5090565b6200077891905b80821115620007745760008160009055506001016200075a565b5090565b90565b611c6b806200078b6000396000f3fe608060405234801561001057600080fd5b50600436106101165760003560e01c80638a799a22116100a2578063a658c17911610071578063a658c1791461079d578063da34250c146107e1578063f2fde38b14610844578063fbc990d014610888578063fc0c546a146108cc57610116565b80638a799a221461058d5780638da5cb5b146106d95780638f32d59b146107235780639399840c1461074557610116565b806344276733116100e957806344276733146102fd57806346ee84b01461035557806354fd4d501461040d57806369520bd414610437578063715018a61461058357610116565b806306fdde031461011b57806308ae4b0c1461019e578063144fa6d7146102015780632fa979ab14610245575b600080fd5b610123610916565b6040518080602001828103825283818151815260200191508051906020019080838360005b83811015610163578082015181840152602081019050610148565b50505050905090810190601f1680156101905780820380516001836020036101000a031916815260200191505b509250505060405180910390f35b6101e0600480360360208110156101b457600080fd5b81019080803573ffffffffffffffffffffffffffffffffffffffff1690602001909291905050506109b4565b60405180838152602001821515151581526020019250505060405180910390f35b6102436004803603602081101561021757600080fd5b81019080803573ffffffffffffffffffffffffffffffffffffffff1690602001909291905050506109e5565b005b6102fb6004803603602081101561025b57600080fd5b810190808035906020019064010000000081111561027857600080fd5b82018360208201111561028a57600080fd5b803590602001918460208302840111640100000000831117156102ac57600080fd5b919080806020026020016040519081016040528093929190818152602001838360200280828437600081840152601f19601f820116905080830192505050505050509192919290505050610bbe565b005b61033f6004803603602081101561031357600080fd5b81019080803573ffffffffffffffffffffffffffffffffffffffff169060200190929190505050610c7a565b6040518082815260200191505060405180910390f35b61040b6004803603602081101561036b57600080fd5b810190808035906020019064010000000081111561038857600080fd5b82018360208201111561039a57600080fd5b803590602001918460208302840111640100000000831117156103bc57600080fd5b919080806020026020016040519081016040528093929190818152602001838360200280828437600081840152601f19601f820116905080830192505050505050509192919290505050610d6b565b005b610415610e27565b604051808263ffffffff1663ffffffff16815260200191505060405180910390f35b6105816004803603604081101561044d57600080fd5b810190808035906020019064010000000081111561046a57600080fd5b82018360208201111561047c57600080fd5b8035906020019184602083028401116401000000008311171561049e57600080fd5b919080806020026020016040519081016040528093929190818152602001838360200280828437600081840152601f19601f820116905080830192505050505050509192919290803590602001906401000000008111156104fe57600080fd5b82018360208201111561051057600080fd5b8035906020019184602083028401116401000000008311171561053257600080fd5b919080806020026020016040519081016040528093929190818152602001838360200280828437600081840152601f19601f820116905080830192505050505050509192919290505050610e2c565b005b61058b6110a3565b005b6106d7600480360360408110156105a357600080fd5b81019080803590602001906401000000008111156105c057600080fd5b8201836020820111156105d257600080fd5b803590602001918460208302840111640100000000831117156105f457600080fd5b919080806020026020016040519081016040528093929190818152602001838360200280828437600081840152601f19601f8201169050808301925050505050505091929192908035906020019064010000000081111561065457600080fd5b82018360208201111561066657600080fd5b8035906020019184602083028401116401000000008311171561068857600080fd5b919080806020026020016040519081016040528093929190818152602001838360200280828437600081840152601f19601f8201169050808301925050505050505091929192905050506111dc565b005b6106e1611453565b604051808273ffffffffffffffffffffffffffffffffffffffff1673ffffffffffffffffffffffffffffffffffffffff16815260200191505060405180910390f35b61072b61147c565b604051808215151515815260200191505060405180910390f35b6107876004803603602081101561075b57600080fd5b81019080803573ffffffffffffffffffffffffffffffffffffffff1690602001909291905050506114d3565b6040518082815260200191505060405180910390f35b6107df600480360360208110156107b357600080fd5b81019080803573ffffffffffffffffffffffffffffffffffffffff1690602001909291905050506115c4565b005b610823600480360360208110156107f757600080fd5b81019080803573ffffffffffffffffffffffffffffffffffffffff169060200190929190505050611758565b60405180838152602001821515151581526020019250505060405180910390f35b6108866004803603602081101561085a57600080fd5b81019080803573ffffffffffffffffffffffffffffffffffffffff169060200190929190505050611789565b005b6108ca6004803603602081101561089e57600080fd5b81019080803573ffffffffffffffffffffffffffffffffffffffff16906020019092919050505061180f565b005b6108d46119a3565b604051808273ffffffffffffffffffffffffffffffffffffffff1673ffffffffffffffffffffffffffffffffffffffff16815260200191505060405180910390f35b60018054600181600116156101000203166002900480601f0160208091040260200160405190810160405280929190818152602001828054600181600116156101000203166002900480156109ac5780601f10610981576101008083540402835291602001916109ac565b820191906000526020600020905b81548152906001019060200180831161098f57829003601f168201915b505050505081565b60036020528060005260406000206000915090508060000154908060010160009054906101000a900460ff16905082565b6109ed611453565b73ffffffffffffffffffffffffffffffffffffffff163273ffffffffffffffffffffffffffffffffffffffff1614610a70576040517f08c379a0000000000000000000000000000000000000000000000000000000008152600401808060200182810382526028815260200180611b556028913960400191505060405180910390fd5b600073ffffffffffffffffffffffffffffffffffffffff16600260009054906101000a900473ffffffffffffffffffffffffffffffffffffffff1673ffffffffffffffffffffffffffffffffffffffff1614610b17576040517f08c379a0000000000000000000000000000000000000000000000000000000008152600401808060200182810382526021815260200180611b0e6021913960400191505060405180910390fd5b80600260006101000a81548173ffffffffffffffffffffffffffffffffffffffff021916908373ffffffffffffffffffffffffffffffffffffffff1602179055507fefc1fd16ea80a922086ee4e995739d59b025c1bcea6d1f67855747480c83214b81604051808273ffffffffffffffffffffffffffffffffffffffff1673ffffffffffffffffffffffffffffffffffffffff16815260200191505060405180910390a150565b610bc661147c565b610c38576040517f08c379a00000000000000000000000000000000000000000000000000000000081526004018080602001828103825260208152602001807f4f776e61626c653a2063616c6c6572206973206e6f7420746865206f776e657281525060200191505060405180910390fd5b60008090505b81518161ffff161015610c7657610c6b828261ffff1681518110610c5e57fe5b60200260200101516115c4565b806001019050610c3e565b5050565b6000600360008373ffffffffffffffffffffffffffffffffffffffff1673ffffffffffffffffffffffffffffffffffffffff16815260200190815260200160002060010160009054906101000a900460ff16610d21576040517f08c379a000000000000000000000000000000000000000000000000000000000815260040180806020018281038252602f815260200180611bdd602f913960400191505060405180910390fd5b600360008373ffffffffffffffffffffffffffffffffffffffff1673ffffffffffffffffffffffffffffffffffffffff168152602001908152602001600020600001549050919050565b610d7361147c565b610de5576040517f08c379a00000000000000000000000000000000000000000000000000000000081526004018080602001828103825260208152602001807f4f776e61626c653a2063616c6c6572206973206e6f7420746865206f776e657281525060200191505060405180910390fd5b60008090505b81518161ffff161015610e2357610e18828261ffff1681518110610e0b57fe5b602002602001015161180f565b806001019050610deb565b5050565b600181565b610e3461147c565b610ea6576040517f08c379a00000000000000000000000000000000000000000000000000000000081526004018080602001828103825260208152602001807f4f776e61626c653a2063616c6c6572206973206e6f7420746865206f776e657281525060200191505060405180910390fd5b8051825114610f00576040517f08c379a0000000000000000000000000000000000000000000000000000000008152600401808060200182810382526032815260200180611b7d6032913960400191505060405180910390fd5b60008090505b82518161ffff16101561109e57600160046000858461ffff1681518110610f2957fe5b602002602001015173ffffffffffffffffffffffffffffffffffffffff1673ffffffffffffffffffffffffffffffffffffffff16815260200190815260200160002060010160006101000a81548160ff021916908315150217905550818161ffff1681518110610f9557fe5b602002602001015160046000858461ffff1681518110610fb157fe5b602002602001015173ffffffffffffffffffffffffffffffffffffffff1673ffffffffffffffffffffffffffffffffffffffff168152602001908152602001600020600001819055507fde0289f9ab76ca6a0984a0c41970cda2510f5f9805b71851ef81e5bfb2d3ec48838261ffff168151811061102b57fe5b6020026020010151838361ffff168151811061104357fe5b6020026020010151604051808373ffffffffffffffffffffffffffffffffffffffff1673ffffffffffffffffffffffffffffffffffffffff1681526020018281526020019250505060405180910390a1806001019050610f06565b505050565b6110ab61147c565b61111d576040517f08c379a00000000000000000000000000000000000000000000000000000000081526004018080602001828103825260208152602001807f4f776e61626c653a2063616c6c6572206973206e6f7420746865206f776e657281525060200191505060405180910390fd5b600073ffffffffffffffffffffffffffffffffffffffff166000809054906101000a900473ffffffffffffffffffffffffffffffffffffffff1673ffffffffffffffffffffffffffffffffffffffff167f8be0079c531659141344cd1fd0a4f28419497f9722a3daafe3b4186f6b6457e060405160405180910390a360008060006101000a81548173ffffffffffffffffffffffffffffffffffffffff021916908373ffffffffffffffffffffffffffffffffffffffff160217905550565b6111e461147c565b611256576040517f08c379a00000000000000000000000000000000000000000000000000000000081526004018080602001828103825260208152602001807f4f776e61626c653a2063616c6c6572206973206e6f7420746865206f776e657281525060200191505060405180910390fd5b80518251146112b0576040517f08c379a000000000000000000000000000000000000000000000000000000000815260040180806020018281038252602e815260200180611baf602e913960400191505060405180910390fd5b60008090505b82518161ffff16101561144e57600160036000858461ffff16815181106112d957fe5b602002602001015173ffffffffffffffffffffffffffffffffffffffff1673ffffffffffffffffffffffffffffffffffffffff16815260200190815260200160002060010160006101000a81548160ff021916908315150217905550818161ffff168151811061134557fe5b602002602001015160036000858461ffff168151811061136157fe5b602002602001015173ffffffffffffffffffffffffffffffffffffffff1673ffffffffffffffffffffffffffffffffffffffff168152602001908152602001600020600001819055507f5dd27703e52ce4468cbaa14d83e36ddda4b69c759bc1546d9788e1da0a1be0a3838261ffff16815181106113db57fe5b6020026020010151838361ffff16815181106113f357fe5b6020026020010151604051808373ffffffffffffffffffffffffffffffffffffffff1673ffffffffffffffffffffffffffffffffffffffff1681526020018281526020019250505060405180910390a18060010190506112b6565b505050565b60008060009054906101000a900473ffffffffffffffffffffffffffffffffffffffff16905090565b60008060009054906101000a900473ffffffffffffffffffffffffffffffffffffffff1673ffffffffffffffffffffffffffffffffffffffff163373ffffffffffffffffffffffffffffffffffffffff1614905090565b6000600460008373ffffffffffffffffffffffffffffffffffffffff1673ffffffffffffffffffffffffffffffffffffffff16815260200190815260200160002060010160009054906101000a900460ff1661157a576040517f08c379a000000000000000000000000000000000000000000000000000000000815260040180806020018281038252602b815260200180611c0c602b913960400191505060405180910390fd5b600460008373ffffffffffffffffffffffffffffffffffffffff1673ffffffffffffffffffffffffffffffffffffffff168152602001908152602001600020600001549050919050565b6115cc61147c565b61163e576040517f08c379a00000000000000000000000000000000000000000000000000000000081526004018080602001828103825260208152602001807f4f776e61626c653a2063616c6c6572206973206e6f7420746865206f776e657281525060200191505060405180910390fd5b600360008273ffffffffffffffffffffffffffffffffffffffff1673ffffffffffffffffffffffffffffffffffffffff16815260200190815260200160002060010160009054906101000a900460ff161561175557600460008273ffffffffffffffffffffffffffffffffffffffff1673ffffffffffffffffffffffffffffffffffffffff1681526020019081526020016000206000808201600090556001820160006101000a81549060ff021916905550507fdfb19ab36f67c8b4de27a61159a10fb6cd26f991c627513dd0b452b99f82d1ec81604051808273ffffffffffffffffffffffffffffffffffffffff1673ffffffffffffffffffffffffffffffffffffffff16815260200191505060405180910390a15b50565b60046020528060005260406000206000915090508060000154908060010160009054906101000a900460ff16905082565b61179161147c565b611803576040517f08c379a00000000000000000000000000000000000000000000000000000000081526004018080602001828103825260208152602001807f4f776e61626c653a2063616c6c6572206973206e6f7420746865206f776e657281525060200191505060405180910390fd5b61180c816119c9565b50565b61181761147c565b611889576040517f08c379a00000000000000000000000000000000000000000000000000000000081526004018080602001828103825260208152602001807f4f776e61626c653a2063616c6c6572206973206e6f7420746865206f776e657281525060200191505060405180910390fd5b600360008273ffffffffffffffffffffffffffffffffffffffff1673ffffffffffffffffffffffffffffffffffffffff16815260200190815260200160002060010160009054906101000a900460ff16156119a057600360008273ffffffffffffffffffffffffffffffffffffffff1673ffffffffffffffffffffffffffffffffffffffff1681526020019081526020016000206000808201600090556001820160006101000a81549060ff021916905550507f7693a3e9eac51f172f145e6f54bc5554168997a1f4efb40f3fad091aa7cfb0e781604051808273ffffffffffffffffffffffffffffffffffffffff1673ffffffffffffffffffffffffffffffffffffffff16815260200191505060405180910390a15b50565b600260009054906101000a900473ffffffffffffffffffffffffffffffffffffffff1681565b600073ffffffffffffffffffffffffffffffffffffffff168173ffffffffffffffffffffffffffffffffffffffff161415611a4f576040517f08c379a0000000000000000000000000000000000000000000000000000000008152600401808060200182810382526026815260200180611b2f6026913960400191505060405180910390fd5b8073ffffffffffffffffffffffffffffffffffffffff166000809054906101000a900473ffffffffffffffffffffffffffffffffffffffff1673ffffffffffffffffffffffffffffffffffffffff167f8be0079c531659141344cd1fd0a4f28419497f9722a3daafe3b4186f6b6457e060405160405180910390a3806000806101000a81548173ffffffffffffffffffffffffffffffffffffffff021916908373ffffffffffffffffffffffffffffffffffffffff1602179055505056fe4f7267616e697a6174696f6e3a20546f6b656e20686173206265656e207365742e4f776e61626c653a206e6577206f776e657220697320746865207a65726f20616464726573734f7267616e697a6174696f6e3a2074782e6f726967696e206973206e6f7420746865206f776e65724f7267616e697a6174696f6e3a206164644f725570646174655375624163636f756e747320706172616d73206572726f722e4f7267616e697a6174696f6e3a206164644f725570646174654d656d6265727320706172616d73206572726f722e4f7267616e697a6174696f6e3a204e6f742061206d656d626572206f6620746865206f7267616e697a6174696f6e2e4f7267616e697a6174696f6e3a206163636f756e74206973206e6f742061207375622d6163636f756e742ea265627a7a723158205e955f8fd227614301d62c7861601bc2fd390a70dc3342e5b0934fe1f7335f3d64736f6c634300050b00324f7267616e697a6174696f6e3a206164644f725570646174654d656d6265727320706172616d73206572726f722e",
  "source": "pragma solidity ^0.5.11;\n\nimport \"openzeppelin-solidity/contracts/ownership/Ownable.sol\";\nimport \"openzeppelin-solidity/contracts/token/ERC20/ERC20.sol\";\nimport \"../Daos.sol\";\n\n\ncontract Organization is Ownable {\n\n    event SetMemberRole(address member, bytes32 role);\n    event RemoveMember(address member);\n    event SetSubAccount(address account, bytes32 desc);\n    event RemoveSubAccount(address account);\n    event SetToken(address token);\n\n    struct Member {\n        bytes32 role;\n        bool hasData;\n    }\n\n    struct SubAccount {\n        bytes32 desc;\n        bool hasData;\n    }\n\n    uint32 public constant version = 1;\n    string public name;\n    ERC20 public token;\n    mapping(address => Member) public members;\n    mapping(address => SubAccount) public subAccounts;\n\n    constructor(Daos _daos, string memory _name) public {\n        name = _name;\n        _daos.register(address(this), _name);\n\n        address[] memory addrs = new address[](1);\n        addrs[0] = msg.sender;\n        bytes32[] memory rs = new bytes32[](1);\n        rs[0] = \"owner\";\n        addOrUpdateMembers(addrs, rs);\n    }\n\n    function setToken(ERC20 _token) public onlyManager {\n        require(address(token) == address(0), \"Organization: Token has been set.\");\n        token = _token;\n        emit SetToken(address(_token));\n    }\n\n    function addOrUpdateMembers(address[] memory addresses, bytes32[] memory roles) public onlyOwner {\n        require(addresses.length == roles.length, \"Organization: addOrUpdateMembers params error.\");\n        for (uint16 i = 0; i < addresses.length; ++i) {\n            members[addresses[i]].hasData = true;\n            members[addresses[i]].role = roles[i];\n            emit SetMemberRole(addresses[i], roles[i]);\n        }\n    }\n\n    function removeMembers(address[] memory _members) public onlyOwner {\n        for (uint16 i = 0; i < _members.length; ++i) {\n            _removeMember(_members[i]);\n        }\n    }\n\n    function getRole(address member) public view returns(bytes32) {\n        require(members[member].hasData, \"Organization: Not a member of the organization.\");\n        return members[member].role;\n    }\n\n    function addOrUpdateSubAccounts(address[] memory accounts, bytes32[] memory descs) public onlyOwner {\n        require(accounts.length == descs.length, \"Organization: addOrUpdateSubAccounts params error.\");\n        for (uint16 i = 0; i < accounts.length; ++i) {\n            subAccounts[accounts[i]].hasData = true;\n            subAccounts[accounts[i]].desc = descs[i];\n            emit SetSubAccount(accounts[i], descs[i]);\n        }\n    }\n\n    function removeSubAccounts(address[] memory accounts) public onlyOwner {\n        for (uint16 i = 0; i < accounts.length; ++i) {\n            _removeSubAccount(accounts[i]);\n        }\n    }\n\n    function getSubAccountDesc(address account) public view returns(bytes32) {\n        require(subAccounts[account].hasData, \"Organization: account is not a sub-account.\");\n        return subAccounts[account].desc;\n    }\n\n    modifier onlyManager() {\n        require(tx.origin == owner(), \"Organization: tx.origin is not the owner\");\n        _;\n    }\n\n    function _removeMember(address member) public onlyOwner {\n        if (members[member].hasData) {\n            delete members[member];\n            emit RemoveMember(member);\n        }\n    }\n\n    function _removeSubAccount(address account) public onlyOwner {\n        if (members[account].hasData) {\n            delete subAccounts[account];\n            emit RemoveSubAccount(account);\n        }\n    }\n}",
  "sourcePath": "/Users/guoping/Documents/gp/proj/comunion/contract/dao/contracts/organization/Organization.sol",
  "compiler": {
    "name": "solc",
    "version": "0.5.11+commit.c082d0b4.Emscripten.clang"
  },
  "schemaVersion": "3.0.15",
  "updatedAt": "2019-10-30T05:23:31.680Z",
  "devdoc": {
    "methods": {
      "isOwner()": {
        "details": "Returns true if the caller is the current owner."
      },
      "owner()": {
        "details": "Returns the address of the current owner."
      },
      "renounceOwnership()": {
        "details": "Leaves the contract without owner. It will not be possible to call `onlyOwner` functions anymore. Can only be called by the current owner.     * > Note: Renouncing ownership will leave the contract without an owner, thereby removing any functionality that is only available to the owner."
      },
      "transferOwnership(address)": {
        "details": "Transfers ownership of the contract to a new account (`newOwner`). Can only be called by the current owner."
      }
    }
  },
  "userdoc": {
    "methods": {}
  }
}