{
  "contractName": "Daos",
  "abi": [
    {
      "constant": true,
      "inputs": [],
      "name": "index",
      "outputs": [
        {
          "internalType": "uint64",
          "name": "",
          "type": "uint64"
        }
      ],
      "payable": false,
      "stateMutability": "view",
      "type": "function"
    },
    {
      "constant": true,
      "inputs": [],
      "name": "version",
      "outputs": [
        {
          "internalType": "uint32",
          "name": "",
          "type": "uint32"
        }
      ],
      "payable": false,
      "stateMutability": "view",
      "type": "function"
    },
    {
      "constant": true,
      "inputs": [
        {
          "internalType": "address",
          "name": "",
          "type": "address"
        }
      ],
      "name": "addressIndex",
      "outputs": [
        {
          "internalType": "uint64",
          "name": "",
          "type": "uint64"
        }
      ],
      "payable": false,
      "stateMutability": "view",
      "type": "function"
    },
    {
      "constant": true,
      "inputs": [
        {
          "internalType": "uint64",
          "name": "",
          "type": "uint64"
        }
      ],
      "name": "daos",
      "outputs": [
        {
          "internalType": "address",
          "name": "addr",
          "type": "address"
        },
        {
          "internalType": "string",
          "name": "name",
          "type": "string"
        }
      ],
      "payable": false,
      "stateMutability": "view",
      "type": "function"
    },
    {
      "constant": true,
      "inputs": [
        {
          "internalType": "string",
          "name": "",
          "type": "string"
        }
      ],
      "name": "nameIndex",
      "outputs": [
        {
          "internalType": "uint64",
          "name": "",
          "type": "uint64"
        }
      ],
      "payable": false,
      "stateMutability": "view",
      "type": "function"
    },
    {
      "anonymous": false,
      "inputs": [
        {
          "indexed": false,
          "internalType": "address",
          "name": "addr",
          "type": "address"
        },
        {
          "indexed": false,
          "internalType": "string",
          "name": "name",
          "type": "string"
        }
      ],
      "name": "RegDao",
      "type": "event"
    },
    {
      "constant": false,
      "inputs": [
        {
          "internalType": "address",
          "name": "_addr",
          "type": "address"
        },
        {
          "internalType": "string",
          "name": "_name",
          "type": "string"
        }
      ],
      "name": "register",
      "outputs": [],
      "payable": false,
      "stateMutability": "nonpayable",
      "type": "function"
    }
  ],
  "bytecode": "0x608060405260016000806101000a81548167ffffffffffffffff021916908367ffffffffffffffff16021790555034801561003957600080fd5b50610aeb806100496000396000f3fe608060405234801561001057600080fd5b50600436106100625760003560e01c80632986c0e51461006757806332434a2e1461009957806354fd4d5014610174578063935c1fb11461019e5780639ba7adc81461020a578063e5a27979146102ee575b600080fd5b61006f6103d1565b604051808267ffffffffffffffff1667ffffffffffffffff16815260200191505060405180910390f35b610172600480360360408110156100af57600080fd5b81019080803573ffffffffffffffffffffffffffffffffffffffff169060200190929190803590602001906401000000008111156100ec57600080fd5b8201836020820111156100fe57600080fd5b8035906020019184600183028401116401000000008311171561012057600080fd5b91908080601f016020809104026020016040519081016040528093929190818152602001838380828437600081840152601f19601f8201169050808301925050505050505091929192905050506103ea565b005b61017c6108aa565b604051808263ffffffff1663ffffffff16815260200191505060405180910390f35b6101e0600480360360208110156101b457600080fd5b81019080803573ffffffffffffffffffffffffffffffffffffffff1690602001909291905050506108af565b604051808267ffffffffffffffff1667ffffffffffffffff16815260200191505060405180910390f35b6102406004803603602081101561022057600080fd5b81019080803567ffffffffffffffff1690602001909291905050506108d6565b604051808373ffffffffffffffffffffffffffffffffffffffff1673ffffffffffffffffffffffffffffffffffffffff16815260200180602001828103825283818151815260200191508051906020019080838360005b838110156102b2578082015181840152602081019050610297565b50505050905090810190601f1680156102df5780820380516001836020036101000a031916815260200191505b50935050505060405180910390f35b6103a76004803603602081101561030457600080fd5b810190808035906020019064010000000081111561032157600080fd5b82018360208201111561033357600080fd5b8035906020019184600183028401116401000000008311171561035557600080fd5b91908080601f016020809104026020016040519081016040528093929190818152602001838380828437600081840152601f19601f8201169050808301925050505050505091929192905050506109b2565b604051808267ffffffffffffffff1667ffffffffffffffff16815260200191505060405180910390f35b6000809054906101000a900467ffffffffffffffff1681565b6000600260008473ffffffffffffffffffffffffffffffffffffffff1673ffffffffffffffffffffffffffffffffffffffff16815260200190815260200160002060009054906101000a900467ffffffffffffffff16905060008167ffffffffffffffff16146104a5576040517f08c379a0000000000000000000000000000000000000000000000000000000008152600401808060200182810382526022815260200180610a956022913960400191505060405180910390fd5b6003826040518082805190602001908083835b602083106104db57805182526020820191506020810190506020830392506104b8565b6001836020036101000a038019825116818451168082178552505050505050905001915050908152602001604051809103902060009054906101000a900467ffffffffffffffff16905060008167ffffffffffffffff16146105a5576040517f08c379a000000000000000000000000000000000000000000000000000000000815260040180806020018281038252601f8152602001807f546865206e616d6520697320616c726561647920726567697374657265642e0081525060200191505060405180910390fd5b60405180604001604052808473ffffffffffffffffffffffffffffffffffffffff16815260200183815250600160008060009054906101000a900467ffffffffffffffff1667ffffffffffffffff1667ffffffffffffffff16815260200190815260200160002060008201518160000160006101000a81548173ffffffffffffffffffffffffffffffffffffffff021916908373ffffffffffffffffffffffffffffffffffffffff160217905550602082015181600101908051906020019061066f9291906109ef565b509050506000809054906101000a900467ffffffffffffffff16600260008573ffffffffffffffffffffffffffffffffffffffff1673ffffffffffffffffffffffffffffffffffffffff16815260200190815260200160002060006101000a81548167ffffffffffffffff021916908367ffffffffffffffff1602179055506000809054906101000a900467ffffffffffffffff166003836040518082805190602001908083835b6020831061073a5780518252602082019150602081019050602083039250610717565b6001836020036101000a038019825116818451168082178552505050505050905001915050908152602001604051809103902060006101000a81548167ffffffffffffffff021916908367ffffffffffffffff1602179055507fa36c6425d992b4e3d6da4e1aadeded1449d5bb10127abe013fc02489dcf8a5f58383604051808373ffffffffffffffffffffffffffffffffffffffff1673ffffffffffffffffffffffffffffffffffffffff16815260200180602001828103825283818151815260200191508051906020019080838360005b8381101561082857808201518184015260208101905061080d565b50505050905090810190601f1680156108555780820380516001836020036101000a031916815260200191505b50935050505060405180910390a160016000808282829054906101000a900467ffffffffffffffff160192506101000a81548167ffffffffffffffff021916908367ffffffffffffffff160217905550505050565b600181565b60026020528060005260406000206000915054906101000a900467ffffffffffffffff1681565b60016020528060005260406000206000915090508060000160009054906101000a900473ffffffffffffffffffffffffffffffffffffffff1690806001018054600181600116156101000203166002900480601f0160208091040260200160405190810160405280929190818152602001828054600181600116156101000203166002900480156109a85780601f1061097d576101008083540402835291602001916109a8565b820191906000526020600020905b81548152906001019060200180831161098b57829003601f168201915b5050505050905082565b6003818051602081018201805184825260208301602085012081835280955050505050506000915054906101000a900467ffffffffffffffff1681565b828054600181600116156101000203166002900490600052602060002090601f016020900481019282601f10610a3057805160ff1916838001178555610a5e565b82800160010185558215610a5e579182015b82811115610a5d578251825591602001919060010190610a42565b5b509050610a6b9190610a6f565b5090565b610a9191905b80821115610a8d576000816000905550600101610a75565b5090565b9056fe546865206164647265737320697320616c726561647920726567697374657265642ea265627a7a72315820426ff5ee94f714a6fcad84040683851f03ae6ebccaa96e692d24e6560c963e7864736f6c634300050b0032",
  "source": "pragma solidity ^0.5.11;\n\n\ncontract Daos {\n\n    event RegDao(address addr, string name);\n\n    struct Dao {\n        address addr;\n        string name;\n    }\n\n    uint32 public constant version = 1;\n    uint64 public index = 1;\n    mapping(uint64 => Dao) public daos;\n    mapping(address => uint64) public addressIndex;\n    mapping(string => uint64) public nameIndex;\n\n    function register(address _addr, string memory _name) public {\n        uint64 i = addressIndex[_addr];\n        require(i == 0, \"The address is already registered.\");\n        i = nameIndex[_name];\n        require(i == 0, \"The name is already registered.\");\n\n        daos[index] = Dao(_addr, _name);\n        addressIndex[_addr] = index;\n        nameIndex[_name] = index;\n\n        emit RegDao(_addr, _name);\n\n        index += 1;\n    }\n}",
  "sourcePath": "/Users/guoping/Documents/gp/proj/solidity/comunion/dao/contracts/Daos.sol",
  "compiler": {
    "name": "solc",
    "version": "0.5.11+commit.c082d0b4.Emscripten.clang"
  },
  "schemaVersion": "3.0.15",
  "updatedAt": "2019-10-24T07:55:40.571Z",
  "devdoc": {
    "methods": {}
  },
  "userdoc": {
    "methods": {}
  }
}